:020000040800F2
:10080000500900209509000811290008EB1800087C
:1008100000000000000000000000000000000000D8
:10082000000000000000000000000000EB2A0008AB
:10083000000000000000000015290008752B0008CA
:10084000A709000800000000A7090008A709000880
:10085000A7090008A7090008A7090008A7090008B8
:1008600000000000A7090008A7090008A709000860
:10087000A7090008A7090008A70900080000000050
:100880003D2E00080000000000000000112D0008AF
:1008900000000000292D00087D2D0008A709000890
:1008A00000000000A709000800000000A12F0008B8
:1008B00000000000DDCCBBAA00F002F800F03EF81A
:1008C0000CA030C8083824182D18A246671EAB4665
:1008D00054465D46AC4201D100F030F87E460F3EF2
:1008E0000FCCB6460126334200D0FB1AA246AB46D7
:1008F000334318473C2F00005C2F0000103A02D30E
:1009000078C878C1FAD8520701D330C830C101D5B0
:1009100004680C60704700000023002400250026B6
:10092000103A01D378C1FBD8520700D330C100D5AB
:100930000B6070471FB51FBD10B510BD00F05DF90D
:100940001146FFF7F7FF02F073FD00F075F903B4ED
:10095000FFF7F2FF03BC00F07BF9000070B505461D
:100960000C46164602E00FCC0FC5103E102EFAD2F0
:10097000082E02D303CC03C5083E042E07D301CCB6
:1009800001C5361F03E021782970641C6D1C761E9A
:10099000F9D270BD0748804707480047FEE7FEE7E9
:1009A000FEE7FEE7FEE7FEE704480549054A064B79
:1009B000704700000D2D0008B90800085003002002
:1009C00050090020500500205005002001E004C01F
:1009D000091F0429FBD28B0701D50280801CC9079F
:1009E00000D00270704700290BD0C30702D00270FC
:1009F000401C491E022904D3830702D50280801CB3
:100A0000891EE3E70022EEE70022DFE70022030968
:100A10008B422CD3030A8B4211D300239C464EE019
:100A200003460B433CD4002243088B4231D30309D5
:100A30008B421CD3030A8B4201D394463FE0C30987
:100A40008B4201D3CB01C01A524183098B4201D39F
:100A50008B01C01A524143098B4201D34B01C01A8A
:100A6000524103098B4201D30B01C01A5241C30802
:100A70008B4201D3CB00C01A524183088B4201D371
:100A80008B00C01A524143088B4201D34B00C01A5D
:100A90005241411A00D201465241104670475DE072
:100AA000CA0F00D04942031000D3404253400022F5
:100AB0009C4603098B422DD3030A8B4212D3FC229E
:100AC000890112BA030A8B420CD3890192118B421D
:100AD00008D3890192118B4204D389013AD0921133
:100AE00000E08909C3098B4201D3CB01C01A5241EE
:100AF00083098B4201D38B01C01A524143098B42B7
:100B000001D34B01C01A524103098B4201D30B019F
:100B1000C01A5241C3088B4201D3CB00C01A5241C4
:100B200083088B4201D38B00C01A5241D9D24308AB
:100B30008B4201D34B00C01A5241411A00D20146E8
:100B4000634652415B10104601D34042002B00D552
:100B50004942704763465B1000D3404201B5002014
:100B6000C046C04602BD7047704770470102C215BB
:100B700004D00123DB071943002A0ADB9E239A1ABB
:100B800002D40846D0407047FF224100120691422D
:100B900001D900207047C017C04370471F22030CC3
:100BA00002D10F2200041CD0030E01D10002083A2A
:100BB000030F01D10001121F830F01D18000921E8B
:100BC000002801DB4000521ED205511802125118B4
:100BD0001922904004D3491C002801D1490849003A
:100BE00008467047C10FC90700D040420122920752
:100BF0001143D3E701218907D0E7754600F024F8B7
:100C0000AE46050069465346C008C000854618B088
:100C100020B5FFF7C9FE60BC00274908B64600268C
:100C2000C0C5C0C5C0C5C0C5C0C5C0C5C0C5C0C59C
:100C3000403D49008D46704710B50446C046C04649
:100C40002046FFF784FE10BD00487047F0020020E8
:100C500001491820ABBEFEE72600020070470000E5
:100C60001A480068002807D119480078002803D1E5
:100C700018480078184948801448006801281ED197
:100C80001548807815490870154800780978884219
:100C900010D012480078012802D0022808D103E0C1
:100CA00001201049087004E002200E49087000E09D
:100CB00000BF00BF094800780949087004E00948EE
:100CC000007807490870704700BFFCE71002002059
:100CD000D4000020C500002004020020D80000201D
:100CE000D7000020C400002070B504460025002075
:100CF00005E04100615A49198DB2411C88B20A28A9
:100D0000F7DB0A212846FFF78BFE80B270BD00009A
:100D100010B50146002000220C2200BF154B1B68B5
:100D2000DB07DB0F002BF9D021E000BF114B9B68E4
:100D3000114C23401B1D0F4CA36000BF00BF00BF20
:100D40000C4B1B68042423409B08002BF7D002287F
:100D500007DB00BF074B1B6C9BB2841E64000B5368
:100D600003E000BF034B1B6C00BF431C98B29042D2
:100D7000DBDB10BD00240140E8FFFF7F01200249BA
:100D80000870062070470000BE00002000B5014634
:100D9000002219200870E620487001F041FE02464A
:100DA00010128870CA70062000BD000070B58CB0AB
:100DB000044600F0AFFA164800F052FA154D04262A
:100DC000002007E03146721CD6B2615C29706D1CB0
:100DD000411CC8B23428F5D32C220E491031684684
:100DE000FFF7BCFD0B480FC800F0E2F90949886322
:100DF00030220C316846FFF7B1FD06480EC80448A2
:100E000002F052F9B01CC0B206460CB070BD000032
:100E1000203F0008100200202248006802283DD12F
:100E2000214800882149097888421ED01E48007850
:100E30001E4908701E4880781E4908701A480088AC
:100E4000002809D101201C490870002017490870AA
:100E500001201749488008E0022017490870012046
:100E600012490870022012494880114840881149EF
:100E70000978884213D00C4800780C4908700C4857
:100E800080780C4908700A484088022802D10A4933
:100E9000087004E001200849087000E0704700BFB6
:100EA000FCE7000010020020BA000020D90000205A
:100EB00004020020DA000020C40000201648006868
:100EC00000281BD100BF15480069022108401449C1
:100ED000087014480078097888420AD010480078D1
:100EE000002803D001201049087002E002200E49BA
:100EF00008700B4800780B4908700BE00A4800782E
:100F0000022803D100200749087002E001200549AA
:100F10000870704700BFFCE7100200200004004882
:100F2000D6000020D5000020C400002010B50C48D9
:100F30000078002800D010BD01200A490870084937
:100F4000087010210920C00600F0B0FD40210920E2
:100F5000C00600F0ABFD044800F012FE00BFEAE757
:100F6000CE000020CC000020004801400346002BAA
:100F700002D0012B12D109E0002905DB022903DC94
:100F800007480160002070470120FCE7012903DBCE
:100F9000022901DC0020F6E70120F4E70220F2E755
:100FA00010020020F8B504460D4600260027002058
:100FB000009001F035FD0646A81EC1B2204600F0A3
:100FC000D5F887B200201C490880A0780002E1789B
:100FD0004018B04201D00020F8BD681E205C01021C
:100FE000A81E205C0818B84201D00020F4E7607801
:100FF000C043C0B2009021780098814201D0002007
:10100000EAE72078192806D0282808D037280AD0FF
:1010100091280FD10BE02046FFF7B8FEDCE7204611
:1010200001F0EAFCD8E72046FFF7C0FED4E7FFF75F
:10103000A5FED1E70020CFE7E00000200246002116
:1010400008E0505C054B5B5C984201D00020704783
:10105000481CC1B21B29F4D30120F8E7FC37000873
:101060000FB400B58DB0164801F0E0FC00280AD09E
:10107000302211A96846FFF771FC11480EA90EC96C
:1010800002F028F813E001F03FFD00F043F90C48AE
:1010900000F0E6F800F008F930220A496846FFF748
:1010A0005DFC08480C380EC8054801F0FDFF0548F6
:1010B0000C380088044948800DB008BC04B01847BB
:1010C000203F00081C0200200402002010B5224826
:1010D0000078002810D02148007802280BD1012088
:1010E0001F490870FFF722FF01211E4800F0D8FCBD
:1010F00001201D49087010BD184800781A49097868
:10110000884227D018480078002804D0012805D04C
:10111000022817D10CE001F099FF16E001201049D8
:101120000870FFF703FF01210E4800F0B9FC0CE046
:1011300001200B490870FFF7F9FE0121094800F072
:10114000B5FC02E001F082FF00BF00BF0648007856
:101150000249087000BFCEE7D4000020C50000207F
:10116000CD00002000140048C400002070B50246E5
:101170000D480E4C002510E01478521C03466340C5
:101180001846002307E0C507ED0F4008002D01D0E9
:10119000064E70405B1C082BF5DB0B464E1EF1B271
:1011A000002BE9D170BD0000FFFF000001A000008E
:1011B0000FB410B50998FFF7D9FC039A0299891862
:1011C000049A8918059A8918069A8918079A89181D
:1011D000089A891844180A98FFF7C8FC24180B9835
:1011E000FFF7C4FC24180C98FFF7C0FC24180D98D6
:1011F000FFF7BCFC24180E98FFF7B8FC2018401C21
:101200000F99401810BC08BC04B018470F4800885C
:10121000322810DB0E48007800280CD00D480088DA
:10122000401C0C4908800846008864280CDB00201C
:10123000088000BFFEE707480088002804D0054862
:101240000088401E0349088070470000CA00002043
:10125000D4000020DC00002072B600BFFEE70000D2
:1012600000B5024600BF02F0D9F80028FBD00D48B7
:101270000069022108430B49086108464261006980
:10128000402108430749086100BF02F0C7F8002861
:10129000FBD004480069022188430249086102F03A
:1012A000ABF800BD002002400348006980210843DC
:1012B00001490861704700000020024000B5034664
:1012C0000A4600BF02F0AAF80028FBD010480069C7
:1012D000012108430E4908611A8000BF02F09EF800
:1012E0000028FBD002F088F8002800D100BD9B1C2C
:1012F000120C1A8000BF02F091F80028FBD00448BD
:101300000069400840000249086102F075F8EDE705
:101310000020024002480349486003484860704783
:101320002301674500200240AB89EFCD0A480088C1
:101330000A4988800A480088C88000BF09480069B7
:1013400002210840002803D000200749088002E05D
:101350000120054908807047C600002004020020D3
:10136000C800002000040048BA00002003480068BC
:10137000034909784018014908607047E8000020D7
:10138000F000002010B50648006810210843044909
:101390000860032000F006F800F02EF8002010BDD1
:1013A0000020024070B50446104801787D20C0003E
:1013B000FFF72CFB064631460D480068FFF726FB79
:1013C000054600F051F8002801D0012070BD042C22
:1013D00007D200222146501E00F03CF80548046068
:1013E00001E00120F2E70020F0E70000F00000201B
:1013F000F4000020EC00002008B500BF0D48806913
:10140000012108430B49886108468069C007C00F65
:10141000009000BF00BF00BF0846C0690904084330
:101420000449C8610846C06909040840009000BF2B
:1014300000BF08BD001002400146002905DBCB06B5
:10144000DB0E01229A40024B1A6000BF7047000079
:1014500000E100E070B504460D46164629462046D8
:1014600001F0FAFE70BD000070B504462546681E06
:101470000949884201D901200CE0681E07494861EA
:101480000321081F01F0E8FE0020044988610720BD
:101490000861002070BD0000FFFFFF0000E000E0D9
:1014A0007047704730B502460B4600BF3C20805C59
:1014B000012801D1022030BD01253C20855400BF08
:1014C00002253D20855410684468106881687025A5
:1014D0002046A843044618680443106844600D4D34
:1014E0001068A84203D00C4D1068A84207D180258F
:1014F0000846A843014658680143106881600125E9
:101500003D20855400BF00253C20855400BF0020AD
:10151000D1E70000002C01400004004010B5044653
:10152000002C01D1012010BD3D20005D002805D117
:1015300000213C200155204600F022F802213D20E8
:101540000155211D206801F097FC0121462001551D
:1015500000BF3E2001553F2001554020015541204C
:10156000015500BF00BF42200155432001554420D2
:1015700001554520015500BF3D2001550020D2E70F
:1015800038B504461B492068884216D100BF1A4866
:10159000C069022108431849C8610846C069022190
:1015A0000840009000BF00BF002211461020FFF746
:1015B00051FF1020FFF740FF1BE0104920688842D0
:1015C00017D100BF0C4880690121890408430A49EA
:1015D000886108468069012189040840009000BFA5
:1015E00000BF002201211620FFF734FF1620FFF76D
:1015F00023FF38BD000400400010024000480140B5
:10160000F8B504460D460020009000BF3C20005D68
:10161000012801D10220F8BD01213C20015500BF65
:1016200002213D2001552068866877213046884395
:101630000646FF2109023046884306462068866038
:101640002868502834D00CDC202851D004DC002835
:101650004CD0102852D14AE030284AD040284DD1F1
:101660003AE060282ED0702807D001210903401AE3
:1016700002D0401A42D10DE043E0EB686A68A968E5
:10168000206801F041FC20688668772006432068C6
:10169000866036E0EB686A68A968206801F034FC6F
:1016A000206880680121890308432168886028E058
:1016B000EA686968206801F041FC5021206801F067
:1016C00031FC1EE0EA686968206801F050FC602186
:1016D000206801F027FC14E0EA686968206801F0DE
:1016E0002DFC4021206801F01DFC0AE000BF00BF76
:1016F00000BF2968206801F015FC02E0012000907D
:1017000000BF00BF01213D20015500BF00213C204A
:10171000015500BF00987EE7704710B50446206869
:10172000006902210840400800281CD02068C068D9
:1017300008404008002816D0481F21680861012091
:101740002077206880698007800F002803D020461A
:10175000FFF7E2FF05E0204600F0C3F8204600F066
:10176000C1F8002020772068006904210840800823
:1017700000281DD02068C06808408008002817D0C5
:10178000C84321680861022020772068806903210E
:1017900009020840002803D02046FFF7BDFF05E0FE
:1017A000204600F09EF8204600F09CF800202077AC
:1017B0002068006908210840C00800281CD0206863
:1017C000C0680840C008002816D0C84321680861D6
:1017D000042020772068C0698007800F002803D08C
:1017E0002046FFF799FF05E0204600F07AF82046F2
:1017F00000F078F800202077206800691021084068
:10180000000900281DD02068C06808400009002891
:1018100017D0C84321680861082020772068C06974
:10182000032109020840002803D02046FFF774FF77
:1018300005E0204600F055F8204600F053F800205F
:10184000207720680069C007C00F01214840484048
:1018500000280CD02068C068084048404840002854
:1018600005D0C81E21680861204600F03CF82068B9
:10187000006980210840C00900280BD02068C0689A
:101880000840C009002805D0C843216808612046E7
:10189000FFF706FE20680069402108408009002803
:1018A0000BD02068C06808408009002805D0C843D4
:1018B00021680861204600F017F82068006920219F
:1018C0000840400900280BD02068C0680840400943
:1018D000002805D0C843216808612046FFF7E1FDD4
:1018E00010BD704770477047704700BFFEE70000AB
:1018F0000148024908607047AAAA00000030004071
:1019000070B504460D460026204600F019F8002860
:1019100010D1A96868680843E9680843E168074A84
:1019200011400843E060206980008008296808436E
:10193000206100E00126304670BD0000C73FFFFF78
:1019400001468868C007C00F0122504050407047D0
:1019500070B505460C4600262846FFF7F1FF002823
:101960000ED1616820680843A1680843E168084314
:1019700021690843E968044A11400843E86000E02F
:101980000126304670BD00003CC2FEFF826A4B0358
:101990005B0B1A438262704708B5054949690143E8
:1019A000034A5161114649690140009100BF08BDD9
:1019B00000100240F0B502460B4600266BE0012401
:1019C000B44019682140002964D05868012802D029
:1019D0005868022816D1986894680D464D436F00E8
:1019E000ED19AC430D464D4345432C43946000BF75
:1019F000DC68186855688543074667433D43556072
:101A000000BF00BF1869D4680D464D436F00ED1943
:101A1000AC430D464D4345432C43D46000BF58684A
:101A2000022829D1FF2911D85869146A0D464D435F
:101A30004D434D432F017D1BAC430D464D434D435C
:101A40004D4345432C43146200BF15E05F69080A0B
:101A500040430C0A60430C0A60430401241A506A94
:101A6000A0430C0A64430D0A6C430D0A6C437C438B
:101A70002043506200BF00BF586814680D464D43B4
:101A80006F00ED19AC430D464D4345432C431460A4
:101A900000BF00BF761C1868F04000288FD1F0BD51
:101AA00081627047816270478162704781617047CF
:101AB0008161704710B5426913460B401B040C4608
:101AC00094432343836110BD024840680C210840C1
:101AD0007047000000100240F8B504460025002CB5
:101AE00030D100BF1848006B0321A14008402106F7
:101AF000084300281BD0012804D002280CD003285A
:101B000014D103E000F02CFF05461AE000F020F8A5
:101B1000002800D00D4D14E000BF0B48006A0221E0
:101B200008404008002800D08D030AE000BF00F004
:101B300017FF074600F0F0FE064600F0FFFE0546E0
:101B400000BF00BF2846F8BD0010024000127A0016
:101B50000248006802210840400870470010024017
:101B60000149086070470000F400002001688022ED
:101B7000914301607047016849084900016070475E
:101B800001680122114301607047C16801221143BD
:101B9000C160704710B5024613681F48824202D0E8
:101BA0001E48824205D118467024A0434C68204349
:101BB0000346194882420BD01848824208D0184880
:101BC000824205D01748824202D01748824206D18D
:101BD000184603242402A043CC6820430346136024
:101BE0008868D06200BF0888906200BF0A488242BD
:101BF00005D00C48824202D00B48824203D10869CA
:101C0000106300BF00BF00BF506901242043506132
:101C100000BF002010BD0000002C01400004004067
:101C2000002000400044014000480140F0B585B06C
:101C300004460D460120049000200390204600F049
:101C40005DF8002850D1E9686868084329690843AD
:101C5000A96908432168264A114008432060A86802
:101C600061680322120391430143616000BF686908
:101C7000A168121191430143A16000BF1D48844235
:101C800003D10020FFF728FF0390039800282BD0F2
:101C90002868002828D000200490039FA86902909B
:101CA0002E680121C9030298884214D17900720874
:101CB00088183146FEF7AAFE80B201900E490198BD
:101CC0000840009001980007400F009908430090D9
:101CD0000098E06006E07108C8193146FEF796FEEC
:101CE00080B2E06000BF00BF049805B0F0BD000006
:101CF000F369FFFF00380140F0FF0000014608686B
:101D0000C007C00F012250405040704700B591B04D
:101D100000200D900E900F901090142108A8FEF74F
:101D200073FE182102A8FEF76FFE0120400236491B
:101D300089690143344A91611146896901400191E1
:101D400000BF00BF000211464969014351611146BD
:101D500049690140019100BF00BF012002900320AA
:101D600003900020069002A90920C006FFF722FE7A
:101D700002200290032003900020069002A909206F
:101D8000C006FFF717FE04200290032003900020F6
:101D9000069002A90920C006FFF70CFE01211B488E
:101DA000FFF7F4FD1A491948FFF7F0FD19491748E4
:101DB000FFF7ECFD00200D900E900F9010900DA9F4
:101DC0001248FFF79DFD0020089009900120400374
:101DD0000A9001200B9000200C9008A90B48FFF7F7
:101DE000B7FD00200949C968042291430143074A0D
:101DF000D16000BF022011464969C908C9000143EA
:101E0000516100BF11B000BD00100240002401402C
:101E1000020000040400000800B587B0182101A8E2
:101E2000FEF7F2FD01208005FFF7B6FD012040041A
:101E3000FFF7B2FD01208004FFF7AEFD0221454807
:101E4000FFF730FE01214348FFF72CFE082109204F
:101E5000C006FFF727FE10210920C006FFF722FE6B
:101E600020210920C006FFF71DFE40210920C006E1
:101E7000FFF718FE80210920C006FFF713FE02209D
:101E8000019001200290032003900020049005900F
:101E900001A93048FFF78EFD012001900290032038
:101EA000039000200490059001A92A48FFF782FDC5
:101EB000082001900120029003200390002004904C
:101EC000059001A90920C006FFF774FD10200190BC
:101ED000012002900320039000200490059001A9A6
:101EE0000920C006FFF766FD202001900120029026
:101EF0000320039000200490059001A90920C0064A
:101F0000FFF758FD4020019001200290032003902C
:101F100000200490059001A90920C006FFF74AFDA2
:101F20008020019001200290032003900020049063
:101F3000059001A90920C006FFF73CFD0220019091
:101F400000200290059001A90348FFF733FD07B078
:101F500000BD0000001400480004004800BF104805
:101F60001049086000BF00BF0F48086000BF032091
:101F7000486000BF0D48886000BF00BF00BF09482F
:101F8000C0684007400F002801D1012000E0002078
:101F90000128F3D100BF06480249086000BF70471E
:101FA000CCCC00000030004055550000FF0F000071
:101FB000AAAA000000B587B0142102A8FEF724FDEC
:101FC000FF2001301249C9690143114AD16111460C
:101FD000C9690140019100BF00BF0021132001F039
:101FE000C3F8132001F0B4F8FF20E13069460881FE
:101FF00000200390642004900020059002A9054869
:10200000FFF7C8FD0348FFF7B1FD07B000BD0000B2
:10201000001002400020004000B587B0142102A843
:10202000FEF7F2FC01204004124989690143114A7C
:102030009161114689690140019100BF00BF0121F2
:10204000152001F091F8152001F082F80A48694640
:102050000881002003907D20C0000490002005909E
:10206000069002A90548FFF795FD0448FFF77EFD9D
:1020700007B000BD00100240C05D000000440140F8
:1020800010B50B480B4908602F2048600021094813
:1020900081607D21C900C1600021016141618161D0
:1020A000FFF73CFA002801D0FFF7D6F810BD00007A
:1020B00000480140A802002000B587B0002003902E
:1020C0000490059006900190029016481649086009
:1020D00016484860002114488160FF21F531C16035
:1020E000002101618161FFF719FA002801D0FFF793
:1020F000B3F801200003039003A90B48FFF780FA0F
:10210000002801D0FFF7A8F800200190029001A953
:102110000548FFF7C7F9002801D0FFF79DF807B081
:1021200000BD00000004004060020020C05D00000F
:1021300000B58FB01C2108A8FEF766FC182102A884
:10214000FEF762FC01208003444989690143434A48
:102150009161114689690140019100BF00BFC00033
:102160001146496901435161114649690140019194
:1021700000BF00BF001202900220039003200490D1
:102180000020059006900120079002A90920C006B2
:10219000FFF710FC01208002029002200390032030
:1021A00004900020059006900120079002A90920C4
:1021B000C006FFF7FFFB00211B2001F011F81B20D8
:1021C000002805DBC206D20E01219140244A11608D
:1021D00000BF2448806808902248C06809902148C0
:1021E00000690A901F4840690B900C200C90002059
:1021F0000D900E9008A91C48FFF718FD00BF00BF06
:1022000000BF00BFEFF310810846012181F3108861
:1022100000BF15498968012292029143124A9160D8
:10222000014681F3108800BF00BF00BF00BF104609
:102230004068D114884311464860084680680821E8
:1022400088431146886000BF00BF0846006801212E
:1022500008431146086000BF0FB000BD00100240E7
:1022600000E100E0100200200038014010B57B487A
:1022700000684008400079490860794800780228E1
:1022800021D178480179FF380138FEF78BFE754976
:10229000887108468079002815D008468079801E0C
:1022A000C1B27148FEF762FF04466E488079801E15
:1022B0006D4A14542004010E6A488079401E11545E
:1022C0000021684841716848FEF7B8FE00282BD00D
:1022D00000206649088002206149087000BF6448F8
:1022E0000068012108436249086000BF5E48FEF7AC
:1022F0004DFD5C49887108468079801EC1B25A48FC
:10230000FEF734FF044657488079801E564A14541D
:102310002004010E53488079401E11540021514879
:10232000417102204E4908704F480078002801D0C2
:10233000012000E000204B490979052901DD012138
:1023400000E000210840484909784A4A1278914241
:1023500001D1012100E00021434A1278FF2A01D176
:10236000012200E0002211430840002867D03D48C8
:102370000079801EC1B23C48FEF7F8FE0446394899
:102380000079801E3849085CE1B2884201D1012001
:1023900000E0002033490979491E334A515C220A82
:1023A000914201D1012100E000210840002843D0E2
:1023B0002D484078042817D006DC01280BD00228CD
:1023C0000CD003281CD10CE0052810D0062811D011
:1023D000102815D111E000F04FF815E000F05EF87C
:1023E00012E000F0ABF80FE000F0A8F80CE000F00D
:1023F000FFF809E000F00CF906E000F037F903E01F
:10240000012000F095F900BF00BF16488079801EBA
:10241000C1B21548FEF7AAFE044612488079801E14
:10242000114A14542004010E0E488079401E1154A4
:1024300000210C48417102E000210A48417100214D
:102440000848C1710171054800680121084303492A
:10245000086000210348016010BD0000002000401A
:10246000BF000020F8010020F8000020E00000205C
:1024700000440140B800002070B500250026064841
:10248000807800020449C9784318180900011C1A11
:10249000022000F04DF970BDF8000020FCB50024CA
:1024A00000272348807800022149C9784318180979
:1024B0000001181A0190002B03D0022000F038F917
:1024C000FCBD1B4800790002194949794518581983
:1024D000012803D9022000F02BF9F1E7032728098E
:1024E000461CE818012801D8012000E00020012B3B
:1024F00001D8012100E000210840002815D0002467
:102500000BE060000B49085A019908410090391905
:10251000074A009850547F1C641CB442F1D304490C
:102520008C70601DC1B20448817100BFC8E7000013
:10253000F8000020BA000020F8010020F8B50025BE
:1025400000262848807800022649C9784718062FB7
:1025500003D3022000F0ECF8F8BD22480079000215
:10256000204949794418E019062803D9022000F0CF
:10257000DFF8F1E703263819062801D8012000E02A
:102580000020062C01D8012100E00021084000288D
:1025900025D0002518E0E819400013490B5A002BFC
:1025A0000ADA0093009B1812802108430D498855D0
:1025B000721C009B8B5405E00A49721C8B54180452
:1025C000000E8855B61C6D1CA542E4D36806000EAB
:1025D000044988706800401DC1B20448817100BF81
:1025E000BAE70000F800002004020020F8010020F3
:1025F00010B50648807800020449C97843181809C4
:1026000000011C1A022000F093F810BDF800002011
:1026100070B500251248807800021149C978441825
:10262000062C03D3022000F083F870BD0C4800791B
:1026300000020B4949794518A9B2E0B2094AFEF7F0
:1026400095FC002803D0032000F072F8EDE761004C
:10265000044A555208210448817100BFE5E7000093
:10266000F800002004020020F8010020F8B5002442
:10267000002000902B48807800022A49C97845182C
:10268000062D03D3022000F053F8F8BD2548007949
:1026900000022449497946187019062803D90220F6
:1026A00000F046F8F1E7032000907019062801D8E1
:1026B000012000E00020062D01D8012100E00021CA
:1026C000084000282BD0002424E06200D21D154BC6
:1026D0009A5C130262000832124FBA5C9A1891B2E7
:1026E0002A19D0B2104AFEF741FC002803D003207B
:1026F00000F01EF8C9E76000C01D0A49085C01022D
:1027000060000830074A105C081829194900064A79
:102710005052641CB442D8D308210448817100BFD0
:10272000B3E70000F800002004020020F8010020B8
:102730000649497880221143044A51701146887035
:102740000522FF3101318A7170470000F800002036
:102750001A488079002801DD012000E00020174997
:102760004979002901D1012100E000210840002819
:1027700023D01348C068400840001149C860114880
:102780000068202188430F490860084600684021FE
:1027900008430C49086080200921C906886100BFF0
:1027A000064841794079401CC2B204484271FF3862
:1027B0000138405C0349203108817047F80100204E
:1027C000002000400038014010B50448C0790128BD
:1027D00003D1FFF74BFDFFF7BBFF10BDF801002051
:1027E000124802680068401C104908600846007AD8
:1027F000824201D9012000E000200C490979012919
:1028000001DD012100E000210840002803D0012162
:102810000648C17102E000210448C1710448006902
:10282000400840000249086170470000F80100209C
:10283000002000400021154801600079FE2801DDDC
:10284000124801711248C069C007C00F1049C86121
:10285000002806D00846006A012108430C49086296
:102860000DE00B4820308088C1B208480279007919
:10287000401CC3B205480371FF3801388154044835
:10288000806908210843024988617047F8010020E7
:10289000003801401B484179807981420CDA19489F
:1028A00041794079401CC2B216484271FF38013864
:1028B000405C154908811CE000211248817180208C
:1028C0000921C906886200BF0F482038006820210E
:1028D00008430D49203908600846006840218843B4
:1028E0000949203908600948C0680121084307499F
:1028F000C86005482038006A402108430249203951
:1029000008627047F8010020203801400020004094
:1029100000BFFEE770470000014600BF0548406861
:10292000F022104010400009034A125C0846D040D3
:10293000704700000010024018380008014600BF30
:1029400005484068072212021040000A034A125C40
:102950000846D040704700000010024028380008A8
:1029600010B50024FFF7B0F8002804D0042804D0E4
:10297000082808D103E0064C07E0054C05E000F00C
:1029800009F8044601E0024C00BF00BF204610BD1C
:1029900000127A0070B50024002500BF134840687B
:1029A0000121090408400546002D03D00846281AD5
:1029B00004D101E00E4C03E00E4C01E00C4C00BFD2
:1029C00000BF00BF0948C06A0007000F461C31461F
:1029D0002046FEF71BF8054949680F229204114072
:1029E0001140890C891C484370BD00000010024052
:1029F00000093D0000127A0070B50146074A042321
:102A0000002007E016781C465D1CEBB20E55521CE8
:102A1000441CE0B23A28F5D3184670BD10020020DD
:102A20000148008B80B270471002002030B5A9B079
:102A300005462C4620681A90241D20681B90241DF2
:102A400020681C90241D20681D90241D20681E9065
:102A5000241D20681F90241D20682090241D2068BC
:102A60002190241D20682290241D20682390241D7D
:102A700020682490241D20682590241D206826901D
:102A8000241D20682790241D206828901A980B90F8
:102A90001B980C901C980D901D980E901E980F90EE
:102AA0001F981090209811902198129022981390BE
:102AB000239814902498159025981690269817908E
:102AC0002798189028982C220FA919906846FDF78E
:102AD00045FF0BA80FC8FEF76BFB2899884202D16F
:102AE000012029B030BD0020FBE7704710B5044637
:102AF00021460348FDF78AFFC1B20248017210BDAA
:102B0000A0860100F801002000B58BB00020174915
:102B10000860012048604B20C0018860012000034C
:102B2000C86000200861012080024861002088619F
:102B30007F20C005C861002008627F20C005486270
:102B4000002088627F20C005C86200200863084812
:102B500048632C2210316846FDF700FF03480FC878
:102B6000FEF726FB014988630BB000BD1002002070
:102B70004C04000010B5FEF7F9FB10BD10B50120A4
:102B80005F490968814301435D4A116000BF00BF8E
:102B900000BF5B480068C007C00F0028F8D000BF26
:102BA00058480068012108435649086000BF00BF2B
:102BB00000BF544800680221084040080028F7D0B0
:102BC000102050490968F8229143C20011434D4A30
:102BD000116000BF00BF1046406B01210843114641
:102BE000486300BF00BF00BF4648406B0221084059
:102BF00040080028F7D010204249496BF822914341
:102C0000C20011433F4A516300BF00BF1046406AF3
:102C1000012108431146486200BF00BF00BF394888
:102C2000406A0221084040080028F7D00020052112
:102C3000C904344A52683D231B049A4301231B04F0
:102C400003400B431A432F4B5A601A46D26A1209AB
:102C500012010243DA6200BF00BF1846006801217A
:102C6000090608431946086000BF00BF00BF254899
:102C70000068012149060840400E0028F6D00020D7
:102C800020494968F022914301431E4A516000BF28
:102C900000BF114649680722120291430143194AB5
:102CA000516000BF0220114649688908890001432C
:102CB000516000BF00BF00BF124840680C210840AF
:102CC0000828F8D11048FEF74BFF0320FEF76AFBF7
:102CD000002801D0FEF7C0FA00BF0A48406B04216B
:102CE00088430849486300BF0020096B002213464F
:102CF00003229A4091430143024A116300BF10BD71
:102D00000020024000100240006CDC02704700000E
:102D100010B5FFF765FD0348006940084000014910
:102D2000086110BD0020004010B510480088401C0C
:102D30000E49088002210E48FEF7BCFE0B480088B1
:102D40000A280CDB00200949088001200949087085
:102D50000948FEF710FF02210548FEF7A9FE0648C4
:102D60000069400840000449086110BDE0000020EF
:102D700000140048BF0000200044014010B528485E
:102D80000068401C2649086026480078002811D0B9
:102D900008460068052839D310210920C006FEF72F
:102DA00083FE40210920C006FEF77EFE00201D495B
:102DB00008702BE01C480078002818D018480068DC
:102DC000062823D300F042F918480078012802D0E1
:102DD000022806D102E000F05BF903E000F04CF9B4
:102DE00000E000BF00BF00200F4908700EE00C4853
:102DF000006851280AD300200949086000F026F92C
:102E000000200B4908700B48FEF7B5FE0948006921
:102E100040084000074908610748FEF77EFC10BDE6
:102E2000E4000020CC000020CD000020C4000020E1
:102E3000CE00002000480140A802002010B50A483A
:102E40000078002807D10948FEF795FE02210848BE
:102E5000FEF72EFE03E002210548FEF72BFE054893
:102E6000FEF75BFC10BD0000D40000200004004011
:102E7000001400486002002010B502681D4B984203
:102E800002D01D4B984205D170241346A3431A4625
:102E90004B681A43174B98420BD0174B984208D0F7
:102EA000164B984205D0164B984202D0154B9842CB
:102EB00006D1032424021346A3431A46CB681A43BF
:102EC00080241346A3434C6923431A4602608B684F
:102ED000C3620B688362074B984205D0084B984247
:102EE00002D0084B984201D10B690363012343616F
:102EF00010BD0000002C01400004004000200040F4
:102F0000004401400048014070B50C468168FF262E
:102F100036020D46B54329461D0215432543294374
:102F2000816070BD10B50A46816870240B46A343CA
:102F30001946072313431943816010BD70B50B4632
:102F40001446026A056A6D086D0005628169F02603
:102F50000D46B5432946250129430A261546B543A2
:102F60002A4615461D432A468161026270BD70B52E
:102F70000B461446056A1026B54305628169026A4C
:102F80000F2636030D46B543294625032943A026BF
:102F90001546B5432A461D012A438161026270BD70
:102FA00010B500BF0948C069202108404009002829
:102FB00009D000BF0548006808404009002802D039
:102FC000FFF738FC01E0FFF765FC10BD0038014059
:102FD00010B51848007800281FD0032016494880F3
:102FE00000BF16480068C007C00F01214840484094
:102FF000002802D11148FEF7C3FD1148008850286F
:1030000016DB10480088AF2812DB00200949087041
:103010000D480078084948800AE0094800884B2894
:1030200003DB08480088AA2802DA01200149087059
:1030300010BD0000D4000020040200200004004065
:10304000C6000020C8000020C500002010B51021D7
:103050000920C006FEF724FD40210920C006FEF726
:103060001FFD08210920C006FEF71AFD20210920B6
:10307000C006FEF715FD10BD10B540210920C006A1
:10308000FEF714FD08210920C006FEF70FFD10BD54
:1030900010B510210920C006FEF708FD20210920E7
:1030A000C006FEF703FD10BD0FB4F0B505462F4670
:1030B00006AEFEF72FF9002404E002CE3819FEF721
:1030C000FDF8241D3C2CF8D3FEF7EEF8F0BC08BC4C
:1030D00004B0184730B58BB005462C4620681B4914
:1030E0000860241D20684860241D20688860241D15
:1030F0002068C860241D20680861241D206848617C
:10310000241D20688861241D2068C861241D206852
:103110000862241D20684862241D20688862241DDE
:103120002068C862241D20680863241D2068486345
:10313000241D2C2210316846FDF710FC03480FC8EF
:10314000FEF736F8014988630BB030BD100200204D
:10315000002805DBC206D20E01219140014A116010
:103160007047000000E100E010B5002819DB1A4AA2
:1031700003231B02D21883089B00D2588307DC0E5E
:10318000FF23A3409A438B071B0E8407E40EA34042
:103190001A43114B032424021B198408A4001A515A
:1031A00018E00E4A03071B0F083B9B089B00D258F0
:1031B0008307DC0EFF23A3409A438B071B0E840773
:1031C000E40EA3401A43054B0407240F083CA4084F
:1031D000A4001A5110BD000000E100E01CED00E069
:1031E00010B5002819DB1A4A03231B02D2188308E2
:1031F0009B00D2588307DC0EFF23A3409A438B0722
:103200001B0E8407E40EA3401A43114B032424022F
:103210001B198408A4001A5118E00E4A03071B0F5B
:10322000083B9B089B00D2588307DC0EFF23A3407A
:103230009A438B071B0E8407E40EA3401A43054BE9
:103240000407240F083CA408A4001A5110BD000074
:1032500000E100E01CED00E010B5002819DB1A4A7F
:1032600003231B02D21883089B00D2588307DC0E6D
:10327000FF23A3409A438B071B0E8407E40EA34051
:103280001A43114B032424021B198408A4001A5169
:1032900018E00E4A03071B0F083B9B089B00D258FF
:1032A0008307DC0EFF23A3409A438B071B0E840782
:1032B000E40EA3401A43054B0407240F083CA4085E
:1032C000A4001A5110BD000000E100E01CED00E078
:1032D000FEB5002401203D4988623D48FDF718FDF8
:1032E0003B48FDF701FD04462046FDF783FC0190B5
:1032F0003848C169384800F0ADF90090019900F0F4
:10330000A9F90746002100F05FF906463148016A35
:10331000304600F059F90546FDF728FC2F49088092
:1033200002202A4988622A48FDF7F2FC2848FDF766
:10333000DBFC04462046FDF75DFC01902548416A10
:10334000274800F087F90090019900F083F90746BB
:10335000244900F039F906461E48816A304600F0DB
:1033600033F90546FDF702FC1F4908800420174980
:1033700088621748FDF7CCFC1548FDF7B5FC0446FC
:103380002046FDF737FC01901248C16A174800F04B
:1033900061F90090019900F05DF90746144900F0C9
:1033A00013F906460B48016B304600F00DF905464F
:1033B000FDF7DCFB0F49088000BF042003490860CB
:1033C00000BF00BF0820086000BFFEBD0024014010
:1033D0004C020020100200201CEB223ECA000020FC
:1033E00023322C3D1F853341C60000208E23963D9D
:1033F00008ACB040C80000200748C0682021084041
:10340000002806D00448C06808430349C86001206A
:1034100070470020FCE70000002002400348C0681D
:10342000C007C00F01214840704700000020024043
:103430008CB0FDF7A7FFFFF7A1FB2C22554968468A
:10344000FDF78CFA534810380FC8FDF709FE5148B4
:1034500010380068002808D001204F4908704F49F3
:1034600048804C481038008808804A4910398868DC
:10347000FFF73CFB4748103800794949087000BF06
:10348000484880684849084009074018454988600D
:1034900000BF00BF00BF43488068C00F0028F9D1BB
:1034A000FEF7BAFCFEF732FCFEF758FDFEF740FED1
:1034B000FEF780FDFEF7B0FDFEF7E2FDFEF7FCFD36
:1034C00000BF00BF00BF00BFEFF31081084601211D
:1034D00081F3108800BF3549096820221143334A1F
:1034E0001160014681F3108800BF00BF00BF304863
:1034F000FEF746FB2748103800792949087000BFBD
:103500002848806828490840401C2649886000BF38
:103510002748FEF73AFB2748FEF737FB2648FEF719
:1035200034FB2648FEF731FBFDF700FD1948103843
:10353000008B1A4908813620488102212048FEF775
:10354000B5FA1A48006840218843184908600846BF
:103550000068802188431549086019E0FDF7AEFC3A
:10356000FDF77EFBFDF758FCFEF7C2F9FFF72CF9DB
:10357000FFF7AEFEFDF74AFEFDF7A8FDFFF728FDB9
:10358000FDF7D4FE0F480078002801D000BFFEE709
:10359000E4E7000020020020C40000200402002014
:1035A000B800002000240140E8FFFF7F0038014000
:1035B0000020004000440140000400400048014059
:1035C00000140048BE00002070B501250400ED077E
:1035D0004C4020D4441A01D2001B0919C60D4B00DF
:1035E000F2B2FF2A29D01B0E2CD000020C02D31AF3
:1035F0002C43DC402843051910D2280A02D3401C72
:103600006D0611D0761EF6058019FF2A00DA70BD0E
:10361000C00DC00570BD694000F07AF80120054377
:10362000C541521C761CE8E764089C40C901614012
:103630008900E7D10124A043E4E71B0E440200D037
:10364000034870BD002AFCD1C00FC00770BD00BF89
:103650000000C07F70B5420064414B005C41120E17
:1036600039D01B0E38D0FF2A3CD0FF2B3AD0400275
:103670004902400A490A060045184E43000A090A51
:10368000D2184843ED017F3A0104731A4019190C0E
:103690004318990F04D001215B0849075B1A521C9B
:1036A000D80904D3401CF50301D19D0607D0FF2A99
:1036B00008D2D50506D0E4072043401970BD012586
:1036C000A843F4E7002A01DCE00770BD2402FF20D4
:1036D0002043C00570BD1B0EFF2A03D0FF2B01D075
:1036E000E00770BDFF2645003606B54206D84D00FE
:1036F000B54203D8D218FF2A00D0E7E7004870BDD2
:103700000000C07F70B501250400ED074C4022D4B5
:10371000441A02D26C40001B0919C60D4B00F2B2CC
:10372000FF2A4BD01B0E50D000020C02D31A2C43A0
:10373000DC40A843051B05D5AD0019D36D08761EE6
:10374000521E37D0F605280A01D2801970BD70418B
:103750006D0603D070BD6940FFF73CFF9C40090235
:103760006140490001D0401E70BD0124A04370BDDE
:103770006D081DD001202B0C01D12D0410302B0E13
:1037800001D12D0208302B0F01D12D01001DAB0FEF
:1037900001D1AD00801CEB0F01D16D00401C6D000C
:1037A000361A121A680AF5054019012A02DB70BDA3
:1037B000002070BDC036300AC00770BD1B0E440229
:1037C00001D1FF2B00D1024870BD002AF0D070BD9E
:1037D0000000C07F081C30445800000000040404AE
:1037E00000000800000008000008000000080002B7
:1037F0000406080A0C0001020304050642494B4571
:103800004D495F4C4C5F53544152545F50524F47A7
:1038100052414D4D494E470000000000000000009D
:103820000102030406070809000000000102030466
:1038300050380008B800002040000000FC080008D4
:1038400090380008F8000020580800001809000807
:103850000100000000000000000000000000000067
:103860000000000000000000000000000101010055
:103870000000000000000000000000000000000048
:1038800000000000040000000100000000127A00A7
:04000005080008B92E
:00000001FF
